:020000040800F2
:1000000000300020415F0008915F0008915F000808
:10001000915F0008915F0008915F000800000000F8
:10002000000000000000000000000000B95D0008B2
:10003000915F000800000000BD5D0008C15D000880
:10004000915F0008915F0008915F0008915F0008D0
:10005000915F0008915F0008915F0008C55D00088E
:10006000915F0008CD5D0008915F0008D55D000834
:10007000E15D0008915F0008915F0008915F000852
:10008000915F0008915F0008915F0008915F000890
:10009000915F0008915F0008915F0008915F000880
:1000A000915F0008915F0008915F0008915F000870
:1000B000915F0008915F000800000000915F000858
:1000C000915F00080000000000000000915F000840
:1000D00000000000915F0008915F0008915F000838
:1000E000915F0008915F0008000000000000000020
:1000F0000000000000000000000000000000000000
:1001000000000000000000000000000000000000EF
:100110000000000000000000915F0008915F0008EF
:1001200000000000000000000000000000000000CF
:1001300000000000000000000000000000000000BF
:10014000915F0008915F00080000000000000000BF
:10015000000000000000000000000000000000009F
:10016000000000000000000000000000000000008F
:10017000000000000000000000000000000000007F
:0801800000000000915F00087F
:1001880010B5054C237833B9044B13B10448AFF3C9
:1001980000800123237010BD5007002000000000DC
:1001A8009C81000808B5034B1BB103490348AFF312
:1001B800008008BD00000000540700209C81000852
:1001C80081F0004102E000BF83F0004330B54FEA00
:1001D80041044FEA430594EA050F08BF90EA020F6D
:1001E8001FBF54EA000C55EA020C7FEA645C7FEA00
:1001F800655C00F0E2804FEA5454D4EB5555B8BF23
:100208006D420CDD2C4480EA020281EA030382EA93
:10021800000083EA010180EA020281EA0303362D25
:1002280088BF30BD11F0004F4FEA01314FF4801CF8
:100238004CEA113102D0404261EB410113F0004F0A
:100248004FEA03334CEA133302D0524263EB4303C1
:1002580094EA050F00F0A780A4F10104D5F1200E5F
:100268000DDB02FA0EFC22FA05F2801841F10001BA
:1002780003FA0EF2801843FA05F359410EE0A5F18E
:1002880020050EF1200E012A03FA0EFC28BF4CF0BF
:10029800020C43FA05F3C01851EBE37101F0004575
:1002A80007D54FF0000EDCF1000C7EEB00006EEB82
:1002B8000101B1F5801F1BD3B1F5001F0CD349080C
:1002C8005FEA30004FEA3C0C04F101044FEA445263
:1002D80012F5800F80F09A80BCF1004F08BF5FEAEA
:1002E800500C50F1000041EB045141EA050130BDCA
:1002F8005FEA4C0C404141EB010111F4801FA4F16D
:100308000104E9D191F0000F04BF01460020B1FAC1
:1003180081F308BF2033A3F10B03B3F120020CDAF9
:100328000C3208DD02F1140CC2F10C0201FA0CF0D7
:1003380021FA02F10CE002F11402D8BFC2F1200C3C
:1003480001FA02F120FA0CFCDCBF41EA0C019040F2
:10035800E41AA2BF01EB0451294330BD6FEA04043B
:100368001F3C1CDA0C340EDC04F11404C4F1200226
:1003780020FA04F001FA02F340EA030021FA04F338
:1003880045EA030130BDC4F10C04C4F1200220FA8F
:1003980002F001FA04F340EA0300294630BD21FACD
:1003A80004F0294630BD94F0000F83F4801306BF93
:1003B80081F480110134013D4EE77FEA645C18BF87
:1003C8007FEA655C29D094EA050F08BF90EA020F1E
:1003D80005D054EA000C04BF1946104630BD91EA16
:1003E800030F1EBF0021002030BD5FEA545C05D119
:1003F8004000494128BF41F0004130BD14F5800458
:100408003CBF01F5801130BD01F0004545F0FE41CB
:1004180041F470014FF0000030BD7FEA645C1ABF00
:10042800194610467FEA655C1CBF0B46024650EA37
:10043800013406BF52EA033591EA030F41F4002163
:1004480030BD00BF90F0000F04BF0021704730B5E9
:100458004FF4806404F132044FF000054FF00001BE
:1004680050E700BF90F0000F04BF0021704730B57F
:100478004FF4806404F1320410F0004548BF404254
:100488004FF000013EE700BF42004FEAE2014FEAA9
:1004980031014FEA02701FBF12F07F4393F07F4F84
:1004A80081F06051704732F07F4208BF704793F087
:1004B8007F4F04BF41F40021704730B54FF460749A
:1004C80001F0004521F000411CE700BF50EA01029D
:1004D80008BF704730B54FF000050AE050EA010246
:1004E80008BF704730B511F0004502D5404261EBB6
:1004F80041014FF4806404F132045FEA915C3FF4F7
:10050800D8AE4FF003025FEADC0C18BF03325FEA93
:10051800DC0C18BF033202EBDC02C2F1200300FA44
:1005280003FC20FA02F001FA03FE40EA0E0021FA69
:1005380002F11444BDE600BF70B54FF0FF0C4CF457
:10054800E06C1CEA11541DBF1CEA135594EA0C0F09
:1005580095EA0C0F00F0DEF82C4481EA030621EA44
:100568004C5123EA4C5350EA013518BF52EA03357F
:1005780041F4801143F4801338D0A0FB02CE4FF031
:100588000005E1FB02E506F00042E0FB03E54FF061
:100598000006E1FB03569CF0000F18BF4EF0010E59
:1005A800A4F1FF04B6F5007F64F5407404D25FEA55
:1005B8004E0E6D4146EB060642EAC62141EA555108
:1005C8004FEAC52040EA5E504FEACE2EB4F1FD0C4A
:1005D80088BFBCF5E06F1ED8BEF1004F08BF5FEAC8
:1005E800500E50F1000041EB045170BD06F000467A
:1005F80046EA010140EA020081EA0301B4EB5C0427
:10060800C2BFD4EB0C0541EA045170BD41F480111E
:100618004FF0000E013C00F3AB8014F1360FDEBF43
:10062800002001F0004170BDC4F10004203C35DA1F
:100638000C341BDC04F11404C4F1200500FA05F3A2
:1006480020FA04F001FA05F240EA020001F0004243
:1006580021F0004110EBD37021FA04F642EB0601B9
:100668005EEA430E08BF20EAD37070BDC4F10C04E3
:10067800C4F1200500FA04F320FA05F001FA04F2A7
:1006880040EA020001F0004110EBD37041F1000193
:100698005EEA430E08BF20EAD37070BDC4F120059E
:1006A80000FA05F24EEA020E20FA04F301FA05F206
:1006B80043EA020321FA04F001F0004121FA04F2AE
:1006C80020EA020000EBD3705EEA430E08BF20EA7E
:1006D800D37070BD94F0000F0FD101F000464000B8
:1006E80041EB010111F4801F08BF013CF7D041EA3A
:1006F800060195F0000F18BF704703F0004652003E
:1007080043EB030313F4801F08BF013DF7D043EA0E
:100718000603704794EA0C0F0CEA135518BF95EAC4
:100728000C0F0CD050EA410618BF52EA4306D1D14B
:1007380081EA030101F000414FF0000070BD50EA6A
:10074800410606BF1046194652EA430619D094EAF4
:100758000C0F02D150EA013613D195EA0C0F05D1DE
:1007680052EA03361CBF104619460AD181EA030132
:1007780001F0004141F0FE4141F470014FF00000EA
:1007880070BD41F0FE4141F4780170BD70B54FF085
:10079800FF0C4CF4E06C1CEA11541DBF1CEA135505
:1007A80094EA0C0F95EA0C0F00F0A7F8A4EB0504E7
:1007B80081EA030E52EA03354FEA013100F08880DE
:1007C8004FEA03334FF0805545EA131343EA1263A7
:1007D8004FEA022245EA111545EA10654FEA00265C
:1007E8000EF000419D4208BF964244F1FD0404F515
:1007F800407402D25B084FEA3202B61A65EB030571
:100808005B084FEA32024FF480104FF4002CB6EB2D
:10081800020E75EB030E22BFB61A754640EA0C00AD
:100828005B084FEA3202B6EB020E75EB030E22BFED
:10083800B61A754640EA5C005B084FEA3202B6EB2E
:10084800020E75EB030E22BFB61A754640EA9C00ED
:100858005B084FEA3202B6EB020E75EB030E22BFBD
:10086800B61A754640EADC0055EA060E18D04FEA7B
:10087800051545EA16754FEA06164FEAC30343EA1B
:1008880052734FEAC2025FEA1C1CC0D111F4801FE8
:100898000BD141EA00014FF000004FF0004CB6E7E1
:1008A80011F4801F04BF01430020B4F1FD0C88BF80
:1008B800BCF5E06F3FF6AFAEB5EB030C04BFB6EB8B
:1008C800020C5FEA500C50F1000041EB045170BD7E
:1008D8000EF0004E4EEA113114EB5C04C2BFD4EBAB
:1008E8000C0541EA045170BD41F480114FF0000E2F
:1008F800013C90E645EA060E8DE60CEA135594EAAB
:100908000C0F08BF95EA0C0F3FF43BAF94EA0C0FAD
:100918000AD150EA01347FF434AF95EA0C0F7FF422
:1009280025AF104619462CE795EA0C0F06D152EA76
:1009380003353FF4FDAE1046194622E750EA41065A
:1009480018BF52EA43067FF4C5AE50EA41047FF46B
:100958000DAF52EA43057FF4EBAE12E74FF0FF3CD0
:1009680006E000BF4FF0010C02E000BF4FF0010CA1
:100978004DF804CD4FEA410C7FEA6C5C4FEA430C1A
:1009880018BF7FEA6C5C1BD001B050EA410C0CBF69
:1009980052EA430C91EA030F02BF90EA020F0020CB
:1009A800704710F1000F91EA030F58BF994208BF32
:1009B80090422CBFD8176FEAE37040F001007047EF
:1009C8004FEA410C7FEA6C5C02D150EA013C07D146
:1009D8004FEA430C7FEA6C5CD6D152EA033CD3D091
:1009E8005DF8040B704700BF8446104662468C468B
:1009F8001946634600E000BF01B5FFF7B7FF0028BE
:100A080048BF10F1000F01BD4DF808EDFFF7F4FFE6
:100A18000CBF012000205DF808FB00BF4DF808ED71
:100A2800FFF7EAFF34BF012000205DF808FB00BF94
:100A38004DF808EDFFF7E0FF94BF012000205DF8B6
:100A480008FB00BF4DF808EDFFF7CEFF94BF01206B
:100A580000205DF808FB00BF4DF808EDFFF7C4FF64
:100A680034BF012000205DF808FB00BF4FEA410CAD
:100A78007FEA6C5C02D150EA013C0AD14FEA430C90
:100A88007FEA6C5C02D152EA033C02D14FF00000CD
:100A980070474FF0010070474FEA410212F500120B
:100AA80015D211D56FF47873B3EB625212D94FEAAD
:100AB800C12343F0004343EA505311F0004F23FA97
:100AC80002F018BF404270474FF00000704750EAEC
:100AD800013005D111F0004008BF6FF000407047A9
:100AE8004FF00000704700BF4FEA4102B2F1E04307
:100AF80024BFB3F5001CDCF1FE5C0DD901F0004CFD
:100B08004FEAC0024CEA5070B2F1004F40EB83004C
:100B180008BF20F00100704711F0804F21D113F178
:100B28003872BCBF01F00040704741F480114FEAB1
:100B38005252C2F11802C2F1200C10FA0CF320FA3A
:100B480002F018BF40F001004FEAC1234FEAD32357
:100B580003FA0CFC40EA0C0023FA02F34FEA4303C1
:100B6800CCE77FEA625307D150EA01331EBF4FF04A
:100B7800FE4040F44000704701F0004040F0FE4065
:100B880040F40000704700BF70B50E4B0E4D1B6857
:100B98002A7806464FF47A70B0FBF2F0B3FBF0F017
:100BA80000F0E2FB08B90F2E01D9012070BD044600
:100BB800024631464FF0FF3000F094FB6E6020464D
:100BC80070BD00BFE006002000000020074A08B5FD
:100BD800136843F010031360032000F071FB00203A
:100BE800FFF7D2FF04F018FF002008BD00200240E4
:100BF800034A044B11681B780B441360704700BF0D
:100C0800640E002000000020014B1868704700BFE8
:100C1800640E002038B50446FFF7F6FF631C05464E
:100C280002D0044B1B781C44FFF7EEFF401BA04288
:100C3800FAD338BD00000020026838B5936803F085
:100C48000303012B02D00023184638BD1168C907D9
:100C5800F9D5916801F00D01012909D0426C42F0E3
:100C680010024264826C42F001028264184638BD68
:100C78009368032143F00203936011600446FFF771
:100C8800C3FF054623689B68DB07DCD5FFF7BCFF7D
:100C9800401B0228F6D9636C43F010036364A36C0D
:100CA80043F00103A3640123CEE700BF70B596B0FB
:100CB8000023009300287FD0436C13F010030446F0
:100CC80016D1456C002D7AD002689168C90067D5A5
:100CD80091688E0064D4616CCD0640F18A80636CA3
:100CE80023F0120343F010036364012016B070BDB3
:100CF800436CDD06F3D40268936813F00403EED165
:100D0800616C21F4817141F00201B2F1A04F61647C
:100D18000CBF67494FF0A0410191916801F00301B0
:100D2800012900F0B0800198816801F003010129D0
:100D380063D060486568816821F440312943816047
:100D4800D4E90251A66BE0692943656A012E18BFF0
:100D58004FF4805341EA4031012D43EA010300F08A
:100D68008A80E16A012902D0206B01430B43916814
:100D780011F00C0F30D0D5684F49206929400B433A
:100D88000128D3606FD0136B23F00F031363002087
:100D9800A064636C23F0030343F001036364A5E7D5
:100DA800636C23F0120343F010036364A36C43F0F5
:100DB8000103A364636C92E7012016B070BD8564DB
:100DC800C0E9135580F8405004F03EFE226893684D
:100DD800D80016D52B4678E7D068616BA56920F452
:100DE8008040490020F0020041EA8531D0600B4381
:100DF800C1E7002B7FF473AF7EE70168C9079FD472
:100E080097E72046FFF718FF626C12F0100F0346B1
:100E180022687FF45AAF00287FF457AF606C2749E7
:100E2800274D096820F4885020F0020040F00200A5
:100E38006064906820F040509060A5FB0101890C27
:100E4800906801EB8101490040F08050906000916A
:100E5800009900293FF439AF0099013900910099B0
:100E68000029F9D131E7116B236A21F00F01013B09
:100E78000B4313638BE778B9A16A013943EA41430D
:100E880043F480336DE71168C8073FF559AF0198FF
:100E980000283FF44EAF47E7616C21F0220141F092
:100EA80020016164A16C41F00101A16459E700BF10
:100EB800000100500003005007C0F0FFE0060020CA
:100EC80083DE1B43F0B4024696B092F8403000200F
:100ED800012B009000F0DA801368CC689D6801202F
:100EE8006D0782F8400037D4D1E9005606EB46007A
:100EF800042E4FEA400079D81E6B1F27874026EA48
:100F0800070605FA00F030431863986810F00C0FD4
:100F180050D1092D05EB4506886840F29C801E3E9D
:100F28009F694FF0070C0CFA06FCB04027EA0C0644
:100F380030439861D1E90467D868C0F3C100400024
:100F4800013E07FA00F0AF06032E0FD8DFE816F0CF
:100F5800F300E800DD00D200536C43F02003536433
:100F6800002382F8403016B0F0BC7047186E00F0CD
:100F7800F840874203D1186E20F000401866586E7A
:100F880000F0F840874203D1586E20F000405866C0
:100F9800986E00F0F840874203D1986E20F0004028
:100FA8009866D86E00F0F840874203D1D86E20F0DA
:100FB8000040D866986800F0030001286AD0012034
:100FC800012C00FA05F069D0D3F8B01021EA00002E
:100FD800C3F8B000102D18D0112D52D0122D03D106
:100FE800784989684C0214D50020B9E7092E3DD903
:100FF8000E2E74D83C389E6B1F27874026EA0706BA
:1010080005FA00F0304398637FE76E4989680F025C
:10101800EAD4B3F1A04F0CBF6B494FF0A041019146
:10102800996801F00301012900F09B80019881680B
:1010380001F00301012900F09C80102D00F0A3802D
:10104800112D00F08380122DCED15E498B6843F4B8
:1010580080038B60C8E75F694FF0070C0CFA06FC49
:10106800B04027EA0C063043586163E71E385E6BD0
:101078001F27874026EA070605FA00F03043586321
:1010880043E750498968CE01C3D5ADE7022016B0C1
:10109800F0BC70471868C00791D5A5E7D3F8B060D1
:1010A8008C683043092DC3F8B0000CD905EB450115
:1010B8001B39986907268E4020EA060004FA01F1D8
:1010C8000143996186E7681C00EB400059690726CF
:1010D8008640844021EA0601214359617CE75A3859
:1010E800DE6B1F27874026EA070605FA00F0304323
:1010F800D8630AE7D3F86CC0344E0CEA06063743C7
:1011080047F000473843D86654E7D3F868C02F4EF5
:101118000CEA0606374347F000473843986649E724
:10112800D3F864C0294E0CEA0606374347F0004757
:10113800384358663EE7D3F860C0244E0CEA0606EA
:10114800374347F000473843186633E7B3F1A04FF9
:101158007FF44AAF1B498B6843F080738B60002093
:10116800FEE61968C80708D4019800283FF465AF5F
:101178005DE70168C9077FF560AF536C43F0200352
:1011880053640120ECE6B3F1A04F7FF42DAF0D4975
:101198000F4C8B680F4843F400038B602368A0FB57
:1011A80003139B0C03EB83035B000093009B002B52
:1011B8003FF41AAF009B013B0093009B002BF9D131
:1011C80012E700BF000300500001005000F0FF8349
:1011D800E006002083DE1B430346F0B4046893F85E
:1011E800402035480D68B4F1A04F18BF4FF0A0401B
:1011F800012A36D0A2680126570783F8406009D52E
:101208005A6C42F020025A640120002283F84020E0
:10121800F0BC704782685607F2D42DB3DFF89CC043
:101228004F68DCF808605A6B26F4604647EA423299
:101238003243CCF80820A26802F00302012A2FD01A
:10124800826802F00302012A2ED01C48896882684D
:1012580022F471620D4322F00F02154385600020CD
:10126800D3E70220F0BC704714498A6822F4604230
:101278008A60A26802F00302012A0DD0826802F097
:101288000302012A14D00D498A6822F4716222F0FF
:101298000F028A600020B8E72268D107DFD4EDE7A3
:1012A8002268D407CCD5DAE70268D007D7D4CCE7D0
:1012B8000268D207D3D4E6E70001005000030050CB
:1012C800074AD3684FF6FF010B40000243F0BF63A3
:1012D80000F4E06043F400330343D360704700BF79
:1012E80000ED00E0184BDB68C3F3022330B4C3F110
:1012F8000705042D03F1040428BF0425062C19D979
:10130800033B4FF0FF349C4022EA04044FF0FF32C5
:10131800AA4021EA020101FA03F22243120100283D
:10132800D2B20ADB00F1604000F5614080F800238A
:1013380030BC704700242346E8E7044B00F00F0058
:1013480003441A7630BC704700ED00E0FCEC00E086
:1013580000F01F0101234009024A8B4042F8203067
:10136800704700BF00E100E00138B0F1807F0ED285
:10137800084B10B4084C5860F02084F82300002271
:10138800072110469A6019605DF8044B70470120E8
:10139800704700BF10E000E000ED00E048B370B413
:1013A800D0E90135D0E9031402462B430068566999
:1013B80095690B432343334304680F490F4E2B436E
:1013C800D569014424F47F54A6FB01612B4324F022
:1013D8003004234309090A4C0360890000200123D3
:1013E800C2E90F41906382F8200082F8213070BC76
:1013F80070470120704700BFF8FFFDBFCDCCCCCCB3
:101408000000024070B4D0E90F5204232968046830
:1014180093400B4226680AD016F0040F07D02268C2
:10142800920637D5C26A6B60CAB170BC10470223F6
:1014380093400B4215D016F0020F12D02268920684
:1014480006D42268012122F00A02226080F82110C5
:10145800826A6B60002380F82030002AE5D170BCD6
:101468007047082393400B42F9D03307F7D5236818
:10147800016B23F00E032360012303FA02F2002418
:101488006A60836380F8213080F820400029E6D024
:1014980070BC0847226822F004022260C2E700BF3D
:1014A800D1F800C0BCF1000F00F0C0802DE9F04F6A
:1014B800DFF88CE183B0884600254FF0010909FA6E
:1014C80005F313EA0C046DD0D8F8042022F0100AB2
:1014D800BAF1020F6DD06F00032101FA07F6D0F8B8
:1014E80000B0F643114006EA0B0BB9400AF1FF3A87
:1014F80041EA0B01BAF1010F01607BD9C168D8F844
:1015080008300E40BB403343D700C3604AD5484932
:101518008B6943F001038B618B6925F0030101F1AD
:10152800804103F0010301F58031019305F00303C5
:10153800019E8E689B000F279F40B0F1904F26EACE
:1015480007060DD03B4FB8426CD03B4FB84264D031
:101558003A4FB8420CBF0327052707FA03F31E4387
:101568008E60DEF80030E143D60354BF0B402343BE
:10157800CEF80030DEF80430970354BF0B40234305
:10158800CEF80430DEF80830D60254BF0B402343AF
:10159800CEF80830DEF80C30920254BF0B402343DB
:1015A800CEF80C3001353CFA05F388D103B0BDE81C
:1015B800F08FEF0800EB870705F00706396AB600D9
:1015C8004FF00F0A0AFA06FB21EA0B0AD8F81010A6
:1015D800B14041EA0A0139626F000321D0F800A046
:1015E80001FA07F6F64311400AEA060AB94041EA49
:1015F8000A010160816801EA060AD8F80C10B940AE
:1016080041EA0A018160D0F804A0C2F300112AEA75
:101618000303A9401943416070E7022707FA03F35F
:101628001E439DE709FA03F31E4399E7704700BF7D
:10163800001002400004004800080048000C004860
:10164800000401400AB9816270478161704700BF98
:10165800044A5169014200D1704708B5506104F04D
:101668009FF908BD00040140002800F0B1812DE970
:10167800F0430368D90783B0044648D5C0494A688F
:1016880002F00C02042A00F064814A6802F00C029D
:10169800082A00F05A816368B3F5803F10D0002B08
:1016A80000F09881B3F5A02F00F03F82B44B1A6880
:1016B80022F480321A601A6822F480221A6004E048
:1016C800AF4A136843F480331360AD4DA268EB6AE8
:1016D80023F00F031343EB62FFF796FA4FF4003839
:1016E8000746012605E0FFF78FFAC01B642800F2C1
:1016F8005D8198FAA8F32A6898FAA8F3B3FA83F3F5
:1017080003F01F0306FA03F31342ECD023689F0784
:1017180059D41D072CD5A269002A00F0EF800122B8
:1017280092FAA2F1974B964EB1FA81F10B449B00C5
:1017380015461A60FFF768FA4FF00208074605E0F9
:10174800FFF762FAC01B022800F2308198FAA8F36A
:1017580098FAA8F398FAA8F3726A98FAA8F3B3FA71
:1017680083F303F01F0305FA03F31342E8D0236859
:10177800580772D5824BDA69D10000F15481DA69D1
:1017880042F08052DA61DB6903F080530193019BD8
:101798004FF001087C4D2A68D20540F1F780E368D4
:1017A800012B00F09781002B00F04081052B744B32
:1017B8001A6A00F0C78122F001021A621A6A22F03E
:1017C80004021A628BE16E4A516811F00C0F7ED048
:1017D800516801F00C01082976D02269002A00F02E
:1017E8005281012292FAA2F3B3FA83F303F18453EC
:1017F80003F584139B0016461A60FFF705FA4FF0AD
:10180800020807465E4D05E0FFF7FEF9C01B0228F7
:1018180000F2CC8098FAA8F32A6898FAA8F3B3FAE9
:1018280083F303F01F0306FA03F31342ECD029688D
:10183800F82292FAA2F26369B2FA82F221F0F80170
:1018480093400B432B60236863E7B8F1000F04D083
:101858004B4AD36923F08053D361E36983B3484D7E
:101868006A6802F00C02082A44D0022B4FF08073F9
:1018780000F0708193FAA3F3B3FA83F303F184536E
:1018880003F584139B0000221A60FFF7BDF92C466C
:1018980007464FF00075012605E0FFF7B5F9C01BB4
:1018A800022800F2838095FAA5F3226895FAA5F339
:1018B800B3FA83F303F01F0306FA03F31342ECD1E0
:1018C800002003B0BDE8F0835268D60385D4022215
:1018D80092FAA2F12A49086892FAA2F2B2FA82F2BE
:1018E80002F01F02012101FA02F2024262D02269CB
:1018F8008A425FD0012003B0BDE8F083012595FA44
:10190800A5F1204B1E4EB1FA81F10B449B004FF01C
:1019180002081A60FFF778F9074604E0FFF774F940
:10192800C01B022842D898FAA8F398FAA8F398FAA4
:10193800A8F3726A98FAA8F3B3FA83F303F01F03C3
:1019480005FA03F31342E9D111E74A68D2037FF598
:10195800A2AE4FF4003292FAA2F10949086892FA4D
:10196800A2F2B2FA82F202F01F02012101FA02F297
:1019780002423FF4CCAE6268002A7FF4C8AEB9E7F1
:101988000010024020819010007000402A6842F444
:1019980080722A60FFF738F906462B68DB053FF5A9
:1019A800FEAEFFF731F9801B6428F6D9032003B097
:1019B800BDE8F083924DF821286891FAA1F1626997
:1019C800B1FA81F120F0F8008A4002432A60A0E6CB
:1019D800012070478A4D2B6823F480332B602B68D5
:1019E80023F480232B60EB6AA26823F00F031343D0
:1019F800EB62FFF709F94FF400380746012604E0C7
:101A0800FFF702F9C01B6428D0D898FAA8F32A680F
:101A180098FAA8F3B3FA83F303F01F0306FA03F363
:101A28001342EDD172E64FF00008B3E6744D2B6A0D
:101A380023F001032B622B6A23F004032B62FFF7C8
:101A4800E3F84FF002090746012614E099FAA9F3D2
:101A58006A6A99FAA9F3B3FA83F303F01F0306FA43
:101A680003F313423FF4F1AEFFF7CEF841F28833A7
:101A7800C01B98429AD899FAA9F399FAA9F3002BAE
:101A8800E4D02A6AE5E7012595FAA5F3B3FA83F3CA
:101A980003F1845303F584139B004FF002081A6086
:101AA800FFF7B2F8564E074605E0FFF7ADF8C01B42
:101AB80002283FF67BAF98FAA8F3326898FAA8F3A1
:101AC800B3FA83F303F01F0305FA03F31342ECD1CF
:101AD80023681EE64A4A136A43F001031362FFF7BC
:101AE80093F84FF002090746454E012515E099FA8B
:101AF800A9F3726A99FAA9F3B3FA83F303F01F03FF
:101B080005FA03F313427FF4A0AEFFF77DF841F224
:101B18008833C01B98423FF649AF99FAA9F399FA5E
:101B2800A9F3002BE3D0326AE4E703F18043A3F57D
:101B38003C331A6842F480221A601A6842F48032F0
:101B48001A60C2E542F004021A621A6A42F00102FF
:101B58001A62C4E793FAA3F3B3FA83F303F1845345
:101B680003F584139B0000221A60FFF74DF84FF02D
:101B780000780746012605E0FFF746F8C01B022853
:101B88003FF614AF98FAA8F32A6898FAA8F3B3FABC
:101B980083F303F01F0306FA03F31342ECD1D4E9ED
:101BA80008136A680B4322F4741213436B604FF0F6
:101BB800807393FAA3F3B3FA83F303F1845303F521
:101BC80084139B004FF000741E60FFF71DF80C4E45
:101BD8000746012505E0FFF717F8C01B02283FF666
:101BE800E5AE94FAA4F3326894FAA4F3B3FA83F353
:101BF80003F01F0305FA03F31342ECD060E600BFBD
:101C080000100240154810B4446804F00C03082B77
:101C180003D013485DF8044B70474FF4701393FAE0
:101C2800A3F3B3FA83F304F47012DA400D49C36ADC
:101C3800885C0F2292FAA2F2B2FA82F203F00F0342
:101C4800D3400B441A7CE3034ABF054B064BB3FB56
:101C5800F2F35DF8044B03FB00F0704700100240FC
:101C680000127A00B881000800093D0078B1534A93
:101C7800136803F007038B420BD2136823F00703A2
:101C88000B431360136803F007038B4201D0012054
:101C9800704703682DE9F0419C0706D5484C8568D4
:101CA800626822F0F0022A4362600D46D9070446B2
:101CB8002FD54268012A6DD0022A0CBF4FF000735D
:101CC800022393FAA3F13E49086893FAA3F3B3FAFF
:101CD80083F303F01F03012101FA03F3034228D021
:101CE800374E736823F003031A437260FEF78CFFC4
:101CF80041F28837804605E0FEF786FFA0EB080032
:101D0800B84258D87368626803F00C03B3EB820FCB
:101D1800F2D12A4A136803F00703AB420CD91368BF
:101D280023F007032B431360136803F00703AB4248
:101D380002D00120BDE8F08123685A0706D5204962
:101D4800E0684A6822F4E06202434A601B0718D43C
:101D5800FFF758FF1A4B0146F0225B6892FAA2F28D
:101D6800B2FA82F203F0F003D3401648164AC35C75
:101D7800002021FA03F31360FEF706FF0020BDE8F8
:101D8800F0810F4A2169536823F4605343EAC10381
:101D98005360DDE74FF4003393FAA3F1084909686B
:101DA80093FAA3F3B3FA83F303F01F0302FA03F3DE
:101DB8000B4295D1BDE70320E1E700BF00200240B8
:101DC80000100240DC810008E0060020084B4FF4B8
:101DD800E0625B6892FAA2F2B2FA82F203F4E0637C
:101DE800D3400449044ACB5C1068D840704700BF10
:101DF80000100240EC810008E0060020084B4FF478
:101E080060525B6892FAA2F2B2FA82F203F460536B
:101E1800D3400449044ACB5C1068D840704700BFDF
:101E280000100240EC810008E00600202DE9F04394
:101E380004460068C50383B03BD5554BDA69D10029
:101E480060D5544D2A68D2054FF0000669D5504D2B
:101E580061682A6A12F440721FD001F440739342F9
:101E68001BD0296A4FF4803321F4407093FAA3F20F
:101E7800494FB2FA82F23A4492004FF0010CC2F88C
:101E880000C093FAA3F3B3FA83F33B449B00002208
:101E98001A602862C80757D461683D4A136A23F458
:101EA80040730B4313621EB1D36923F08053D3618F
:101EB8002068C10706D5364AA168136B23F00303CF
:101EC8000B431363820606D5314AE168136B23F08E
:101ED80010030B431363030606D52D4A2169D36A01
:101EE80023F4F8730B43D36210F4805007D0284AC8
:101EF8006169136B23F480730B431363002003B0F1
:101F0800BDE8F083DA69234D42F08052DA61DB697B
:101F180003F080530193019B2A68D2054FF0010614
:101F280095D42A6842F480722A60FEF76DFE07464F
:101F38002B68DB058BD4FEF767FEC01B6428F7D936
:101F4800032003B0BDE8F0836746FEF75DFE4FF05F
:101F58000209804614E099FAA9F36A6A99FAA9F382
:101F6800B3FA83F303F01F0307FA03F3134293D181
:101F7800FEF74AFE41F28833A0EB08009842DFD80A
:101F880099FAA9F399FAA9F3002BE4D02A6AE5E7AC
:101F9800001002400070004000819010D0E900312C
:101FA8005A68B1F5827F22F0E0025A6013D0826A43
:101FB800B2F5005F07D11A6822F400521A601A6855
:101FC80042F400521A600122002380F85D2080F854
:101FD8005C30032070478268B2F5004F02D0B2F53A
:101FE800806FE4D11A6822F040021A60DFE700BF70
:101FF80070B505460C4616462B68986810F08000A8
:1020080000D170BD621CF8D024B1FEF7FDFD801B25
:102018008442F1D82846BDE87040FFF7BFBF00BF33
:10202800F0B5064683B00C4615461F46316801E0F8
:102038006B1C0DD18868204016D0B4F5C06FF7D15D
:102048000A7BD2B28DF807206B1C9DF80720F1D0CF
:1020580025B1FEF7D9FDC01B8542E7D8304603B04D
:10206800BDE8F040FFF79ABF03B0F0BDF8B543688C
:10207800B3F5827F04460E46174623D03A463146CA
:102088002046FFF7B5FF0546A8B96368B3F5827F18
:1020980001D02846F8BDA368B3F5004F02D0B3F5C8
:1020A800806FF6D13B4632464FF4C0612046FFF7B9
:1020B800B7FF0028EDD0236E032543F020032366E5
:1020C8002846F8BD8368B3F5004F02D0B3F5806F9A
:1020D800D4D12268136823F040031360CEE700BF11
:1020E80070B513460D4616460A464FF4C0510446CD
:1020F800FFF796FF70B9324629462046FFF778FF6A
:1021080040B933462A464FF4C0612046FFF788FF9E
:1021180000B970BD236E43F020032366032070BD11
:102128002DE9F8430446012084F85C0016469946D8
:102138000F46089DFEF768FD94F85D306268DBB2D3
:10214800012B804610D0B2F5827F08D002200122F0
:10215800002384F85D2084F85C30BDE8F883A1682A
:102168000029F3D1042BF1D1002F6CD0002E6AD0B6
:10217800B9F1000F67D094F85D30E1682664042B4C
:102188001CBF052384F85D300023B1F5E06F23669A
:10219800C4E91333A4F84690A4F84490A763A4F8BC
:1021A8003C90A4F83E9023684FD9596821F4805197
:1021B80059601968480603D4196841F0400119604C
:1021C800002A00F0B980E28F92B2012A00F0B480B0
:1021D8004FF00109E38F9BB22BB9B4F846309BB29C
:1021E800002B00F08980B9F1000F0FD0E38F9BB26C
:1021F80063B123689A68910708D537F8022BDA602B
:10220800E38F013B9BB2E3874FF00009B4F84630F7
:102218009BB273B123689A68D2070AD5DB6826F89F
:10222800023BB4F84630013B9BB2A4F846304FF06D
:102238000109681CCED0FEF7E7FCA0EB0800854238
:10224800C8D8032083E7012081E7B4F846100129A4
:10225800596840F28E8021F4805159601968490606
:1022680040F18E80002A6FD0E28F92B2012A6BD0A3
:102278004FF00109E38F9BB223B9B4F846309BB203
:10228800002B39D0B9F1000F12D0E38F9BB27BB18C
:1022980023689A6891070BD5E28F012A5FD937F82E
:1022A800022BDA60E38F023B9BB2E3874FF0000911
:1022B800B4F846309BB2B3B123689A68D20712D5F6
:1022C800B4F84620012A24D9DA6826F8022BB4F893
:1022D8004620023A92B2A4F84620B4F84620012AD1
:1022E80023D94FF001096B1CC4D0FEF78DFCA0EB7D
:1022F80008008542BED8A4E7424629462046FFF793
:10230800EFFE08B120232366206E003018BF01209D
:102318001DE71B7B3370B4F84630013B9BB2013696
:10232800A4F846304FF00109DDE75A6842F48052BC
:102338005A604FF00109D6E737F8022BDA60E38FCD
:10234800013B9BB2E38743E7E28F012A1DD937F8A7
:10235800022BDA60E38F023B9BB2E38788E73A7887
:102368001A73E38F013B9BB20137E3874FF00009F3
:102378009EE741F480515960196848063FF572AFED
:10238800196841F0400119606CE73A781A73E38FD5
:10239800013B9BB20137E3876AE700BF002851D0B1
:1023A800F0B590F85D30002283B0044603F0FF01D9
:1023B8008262002B41D00223216884F85D300B68CB
:1023C800E668226B23F04003B6F5E06F0B602DD969
:1023D800B6F5706F38D1A06A002A3AD04FF0000CD9
:1023E800A268636827691343626A019262693B4382
:1023F8001343D4E90675019A3243266A2B43656B69
:10240800334307F400763F0C07F0040715433343C2
:1024180000223D43034345EA0C05012610460B60A4
:102428004D60226684F85D6003B0F0BD14D00020D2
:10243800A062AAB14FF4805CD2E780F85C1003F088
:102448008BFBB8E7012070470020A062002AC5D1A5
:10245800104602232363C1E7A06A002AEAD1024694
:102468000123104623634FF4805CB9E72DE9F0415E
:102478001E46436890F85C70B3F5827F82B00446CC
:1024880090460D4616D0012F24D0012384F85C30E5
:10249800FEF7BAFB074694F85D00C0B201281DD0CC
:1024A80002200122002384F85D2084F85C3002B009
:1024B800BDE8F0818368002BE5D10423012F80F863
:1024C8005D3007D0134600960A46FFF729FE02B092
:1024D800BDE8F081022002B0BDE8F081002DE0D017
:1024E800B8F1000FDDD0042384F85D3000232366A3
:1024F800A363A4F84680A387E387C4E9133323685A
:10250800E26859682564B2F5E06F8CBF21F4805108
:1025180041F48051A4F844805960A168B1F5004F96
:1025280056D01968490603D4196841F0400119606A
:10253800B2F5E06F2AD8B4F846309BB28BB1236865
:102548009A68D0073AD51B7B05F8013BB4F84630AA
:10255800013B9BB2A4F84630B4F846309BB2002B3E
:10256800EDD13A4631462046FFF780FD08B12023D9
:102578002366206E003018BF012092E736B3731C23
:1025880004D0FEF741FBC01BB0421FD2B4F846305E
:102598009BB2002BE5D023689A68D207EED5DB689A
:1025A80025F8023BB4F84630013B9BB2A4F846300C
:1025B800B4F846309BB2002BEDD1D2E736B1711C8E
:1025C800B9D0FEF721FBC01BB042B4D3032068E7A3
:1025D800196821F480411960A3E700BF036801224C
:1025E800186A02FA01F120EA010010B418621A6AA6
:1025F8000D4C1143A34219620AD00C4A934207D0EA
:1026080002F58062934203D002F58062934203D1BF
:102618005A6C42F400425A641A685DF8044B42F05E
:10262800010200201A607047002C01400040014060
:10263800FFF7D4BF036830B41A6A1C4D012404FAAA
:1026480001F122EA01021A621A6A1A62AB421ED02A
:10265800174A93421BD002F58062934217D002F5C5
:102668008062934213D0196A41F21112114208D1C3
:10267800196A40F24442114203D11A6822F0010259
:102688001A60012380F83D3030BC00207047196A79
:1026980041F211121142E6D1196A40F24442114244
:1026A800E1D15A6C22F400425A64DCE7002C014064
:1026B800004001400368C1B104290DD11A6A22F013
:1026C80010021A621A6A42F010021A621A6842F07C
:1026D80001021A60002070471A6A22F001021A6289
:1026E8001A6A42F001021A62E8E71A6A22F0010245
:1026F8001A621A6A42F001021A62E7E72F4A03686F
:102708009042F0B44D698E680C6837D0B0F1804FB4
:1027180019D0A2F59432904215D002F59E3290421B
:102728003FD002F58062904239D002F58062904233
:1027380035D023F080032B430360C66284620123F3
:102748004361F0BC70474F68CA6823F070033B438D
:1027580023F44073134323F080032B430360184B87
:10276800C6629842846203D003F580639842E6D13A
:102778000B69036301234361F0BC70474F68CA6863
:1027880023F070033B4323F44073134323F0800387
:102798002B430360C66284620B690363EAE7CA6875
:1027A800F1E7CF6823F440723A4322F080022A43CB
:1027B8000260C66284620B690363DBE7002C014098
:1027C80000440140B8B190F83D3010B503F0FF0265
:1027D80004465BB1022384F83D302068211DFFF7D1
:1027E8008DFF012384F83D30002010BD80F83C2087
:1027F80003F0FAF9EEE70120704700BF00284FD038
:10280800F0B590F83D3083B005460C4603F0FF0262
:10281800002B40D02946022351F8040B85F83D309F
:10282800836823F4803323F007038360FFF766FF90
:102838002968236988688E69A769A268D4F800C0E6
:1028480026F4407EE6691B0143EA0623266A0196C0
:10285800E6683343019E2EF0030E42EA072242EA5D
:102868000E020F6A43EA06336669646822F47C4202
:1028780044EA061440EA0C0022F0FC0227F0AA07FA
:10288800886027431343012400208B610F6285F879
:102898003D4003B0F0BD80F83C2003F0BBF9B9E738
:1028A80001207047F0B4046A8F680E68184D24F050
:1028B80001040462036A4468826922F4803223F0C6
:1028C800020322F07302A84243EA070342EA06021F
:1028D8000BD005F5A055A84207D005F58065A8429C
:1028E80003D005F58065A8420BD1CD6823F0080315
:1028F8002B43D1E9055624F44074354323F00403EF
:102908002C43496844608261F0BC416303627047AC
:10291800002C0140F0B4046A8F680E68194D24F049
:1029280010040462026A4468836923F0807322F009
:10293800200223F4E643A84242EA071243EA0623A8
:1029480017D0114DA84206D0104DA84203D005F566
:102958008065A84206D1D1E9055624F44064354380
:1029680044EA8504496844608361F0BC816302627B
:102978007047CD6822F0800242EA051222F0400238
:10298800E9E700BF002C014000400140004401403D
:10299800F0B4046A8F680E68194D24F480740462D8
:1029A800026A4468C36923F4803322F4007223F076
:1029B8007303A84242EA072243EA060317D0114DDF
:1029C800A84206D0104DA84203D005F58065A8425C
:1029D80006D1D1E9055624F44054354344EA051498
:1029E80049684460C361F0BCC16302627047CD6846
:1029F80022F4006242EA052222F48062E9E700BF7D
:102A0800002C01400040014000440140F0B4046A39
:102A18008F680E68154D24F480540462026A446875
:102A2800C36923F0807322F4005223F4E643A842DA
:102A380042EA073243EA06230BD005F5A055A8421F
:102A480007D005F58065A84203D005F58065A84242
:102A580004D14D6924F4804444EA851449684460EB
:102A6800C361F0BC01640262704700BF002C0140E2
:102A7800F0B4046A8F680E68154D24F4803404623B
:102A8800026A4468436D23F4803322F4003223F051
:102A98007003A84242EA074243EA06030BD005F551
:102AA800A055A84207D005F58065A84203D005F5D2
:102AB8008065A84204D14D6924F4803444EA052491
:102AC800496844604365F0BC81650262704700BF95
:102AD800002C0140F0B4046A8F680E68154D24F488
:102AE80080140462026A4468436D23F0807322F400
:102AF800001223F4E043A84242EA075243EA0623BD
:102B08000BD005F5A055A84207D005F58065A84269
:102B180003D005F58065A84204D14D6924F48024CA
:102B280044EA8524496844604365F0BCC165026293
:102B3800704700BF002C014038B590F83C30012B9D
:102B480000F0AA800D4602230121044680F83C10BB
:102B580080F83D30142A1DD8DFE802F00B1C1C1C3D
:102B68003C1C1C1C551C1C1C6D1C1C1C861C1C1C89
:102B7800230029460068FFF795FE236828699969AC
:102B880041F008019961996921F0040199619A69F4
:102B980002439A610123002084F83D3084F83C0008
:102BA80038BD29460068FFF795FF23682869596DE5
:102BB80041F400615965596D21F4806159655A6D78
:102BC80042EA00225A650020012384F83D3084F847
:102BD8003C00E5E729460068FFF79CFE2368286962
:102BE800996941F400619961996921F48061996159
:102BF8009A6942EA00229A610020012384F83D3054
:102C080084F83C00CCE729460068FFF7C1FE23683A
:102C18002869D96941F00801D961D96921F004010D
:102C2800D961DA690243DA610020012384F83D3072
:102C380084F83C00B4E729460068FFF7E7FE2368FC
:102C48002869D96941F40061D961D96921F48061A1
:102C5800D961DA6942EA0022DA610020012384F8A6
:102C68003D3084F83C009BE729460068FFF700FFE9
:102C780023682869596D41F008015965596D21F09B
:102C8800040159655A6D02435A650020012384F8EE
:102C98003D3084F83C0083E7022038BD90F83C3092
:102CA800012B1BD0026870B40E4D53689468AA4279
:102CB8000FD00E688D6823F0700324F08001334331
:102CC800002429435360916080F83C40204670BC42
:102CD80070474D6823F470032B43EAE70223184634
:102CE800704700BF002C014090F83C30012B38D0D1
:102CF80030B4D1E90253024623F44073D1E9000409
:102D08002B4323F48063234323F40063D1E9045461
:102D1800034323F480532B4323F40053886A8D69BB
:102D2800234323F4404303430F4C106823F47023D8
:102D3800A04243EA054306D00021436430BC08465C
:102D480082F83C1070474D6A23F47003D1E90741BB
:102D580043EA055323F08073234323F000730B43A6
:102D6800EAE70220704700BF002C01400268836830
:102D7800594970B50569466904462B43C069156809
:102D88003343294003430B4313605168E568A36943
:102D9800266A21F440512943516091684F4D21F42E
:102DA800306133430B43AA4293601BD04C4B9A4289
:102DB80008D04C4B9A4205D0B0F5004F00F0858002
:102DC800012070BDB0F5004F00F08280FEF7FEFFD5
:102DD800D4E9002300EB5300B0FBF3F080B2D060DD
:102DE800002070BD404B41491B6B03F00303B0F555
:102DF800004FCB5C16D0082BE2D801A252F823F082
:102E0800D52D0008CD2E0008B32E0008C92D0008C6
:102E1800AD2E0008C92D0008C92D0008C92D0008CD
:102E2800972E0008082B50D8DFE803F0522E254FC4
:102E3800144F4F4F05006368590801F58031B1FB05
:102E4800F3F1C1F3420321F00F010B439BB20020C1
:102E5800D36070BDFEF7D6FED4E900214B0803EB22
:102E68004000B0FBF1F0C0F3420320F00F00034331
:102E78009BB20020ECE761684B0803F5740303F587
:102E88001053B3FBF1F1DCE7FEF7B8FFE4E7626843
:102E98001249530803F50043B3FBF2F39BB2CB602E
:102EA800002070BDFEF7AEFE92E762680B4953083A
:102EB80003F5F40303F59053B3FBF2F39BB2CB6035
:102EC800002070BDFEF79AFF82E700230120BFE7CC
:102ED800FEF77CFFC0E700BFF369FFEF0038014051
:102EE800004400400048004000100240D88100081B
:102EF800436ADA0710B406D50168846A4A6822F47E
:102F0800003222434A609C0706D50168C46A4A68B1
:102F180022F4803222434A60590706D50168046BBF
:102F28004A6822F4802222434A601A0706D50168BB
:102F3800446B4A6822F4004222434A60DC0606D504
:102F48000168846B8A6822F4805222438A60990659
:102F580006D50168C46B8A6822F4005222438A604D
:102F68005A0609D50168046C4A6822F48012224383
:102F7800B4F5801F4A600BD01B0606D50268816C29
:102F8800536823F400230B4353605DF8044B7047E8
:102F98004A68446C22F4C00222434A60ECE700BF4E
:102FA8002DE9F843089D80460F4616469946D8F8FD
:102FB800004001E06B1C0AD1E06937EA00030CBF4E
:102FC80001200020B042F5D00020BDE8F8833DB1D3
:102FD800FDF71AFEA0EB0900A842E8D9D8F800408E
:102FE800236823F4D0732360A368202223F001030D
:102FF8000021A360032088F8692088F8681088F801
:103008006A20E2E72DE9F0410E4690F86910202980
:1030180084B034D1002E36D00392A2B31F4690F864
:103028006830012B04462AD00023C36601212123DE
:1030380080F8681080F86930FDF7E6FD039AA4F877
:1030480050208046A4F85220B4F85250ADB24346FE
:103058000022802120462DB3B4F852500097013D3C
:10306800ADB2A4F85250FFF79BFFC8B9A368226815
:10307800B3F5805F0BD0337813850136E4E702207F
:1030880004B0BDE8F081012004B0BDE8F0812369F7
:10309800002BF0D136F8023BC3F308031385D3E7BE
:1030A8000320EDE700972A464021FFF779FF002823
:1030B800F6D1202384F8680084F86930E0E700BF7F
:1030C80070B50446002582B0C566FDF79DFD2368EE
:1030D8001A68120706460CD41B685B0718D420230D
:1030E800002084F8693084F8680084F86A3002B0F7
:1030F80070BD6FF07E4300932A4603464FF40011DB
:103108002046FFF74DFF78B923681B685B07E6D5B3
:103118006FF07E420092334600224FF48001204631
:10312800FFF73EFF0028DAD0032002B070BD00BFD1
:1031380090B390F8693010B503F0FF02044603B36A
:103148002268242384F86930136823F0010313608C
:103158002046FFF70BFE012818D0636AC3B923681D
:103168005A6822F490425A609A6822F02A029A60B9
:103178001A6842F0010220461A60BDE81040FFF7C5
:103188009FBF80F8682002F0DDFDD9E7012010BD5F
:103198002046FFF7ADFEE2E701207047D0ED145A54
:1031A800D0ED0A4A90ED076AD0ED0B6A90ED087AE7
:1031B800D0ED0C2A90ED093AB0EE002AC2EE257A3D
:1031C80034EEA45A76EE065A67EEA66A27EE877A98
:1031D80027EEA44A25EE275A67EE864A65EEA75AD7
:1031E800F0EE663AB0EE476AE7EE843AD7EE846AC4
:1031F800A7EEA46A97EEA47A27EEC55A67EEE55AB9
:10320800A2EE825AE3EE025A36EE036A73EEA24A3F
:1032180076EEA26A37EE037AC4EE863A85EE064A5F
:10322800C6EE864A85EE865AC7EE066AC0ED0D7A66
:10323800C0ED013A80ED024AC0ED034A80ED055A1F
:10324800C0ED066A704700BF90ED0F6AD0ED027AB4
:1032580090ED007A90ED013A90ED104AD0ED033AE6
:10326800D0ED126AD0ED054AD0ED135A90ED065A0A
:1032780080ED0E7A66EE277A80ED0F7AE7EE037A14
:1032880080ED106AE3EE847AC0ED136AE4EEE67A24
:10329800E5EE657AC0ED117AC0ED127A704700BF8D
:1032A80090ED007A90ED014A90ED0A6AD0ED067A29
:1032B800D0ED054A90ED075AD0ED0B5AD0ED086ACB
:1032C80037EE447A66EE277A80ED027AE7EE247AC2
:1032D800E5EE257AF4EEE67AF1EE10FAC0ED0C7A16
:1032E8000BDCD0ED096AF4EEE67AF1EE10FA04D4BC
:1032F800F0EE676AC0ED0D7A01E0C0ED0D6AD0ED21
:10330800035A90ED045AD0ED0F4A80ED037A77EE18
:10331800655A77EEE67AC5EE856AA7EEE47AC0EDDF
:103328000E7AA5EE076AC0ED0B6A80ED0A6A70474F
:103338002DE9D04304468069FDF7A6F81AA3D3E91E
:103348000023FDF7F9F8FDF7CFFBD4ED027A07EE7D
:10335800100A67EE277A17EE900AFDF795F8002213
:103368004FF0804380468946FCF730FF02460B4603
:1033780006460F4640464946FDF708FAFDF7B4FBF6
:1033880000224FF08043206049464046FCF71CFF6E
:1033980032463B46FDF7FAF9FDF7A6FB6060BDE84B
:1033A800D08300BFAFF30080182D4454FB2119408F
:1033B800D0B52DED048B90ED058AD0ED009A90EDF7
:1033C800039AD0ED018AF0EE487AE9EE897A04464C
:1033D80018EE900AC4ED047AFDF756F802460B463B
:1033E80000201749FCF7F0FE064619EE900A0F4632
:1033F800FDF74AF802460B4630463946FDF79CF879
:10340800064619EE100A0F46FDF73EF802460B462F
:1034180030463946FDF790F868EEC87A064617EE4A
:10342800900A0F46FDF730F802460B4630463946FB
:10343800FCF7CCFEFDF758FBBDEC048B6061D0BDFA
:103448000000F03F0000000010B581890446008CA0
:1034580007EE900A0123F8EE677A4A1E03FA02F291
:103468008B4017EE900AC4E90423FDF70DF80022FB
:103478000D4BFDF761F802460B4600200B49FDF79E
:1034880085F902460B46FCF7A1FE05A3D3E9002304
:10349800FDF752F8FDF728FB606210BDAFF300801E
:1034A800182D4454FB210940000010400000F03F53
:1034B8000168C3690269CB1A934243602ADC52420D
:1034C800934202DA42691344436007EE903A90ED62
:1034D800095AD0ED025A8269D0ED0B6AC161B8EE83
:1034E800E77A134427EE057A07EE903A87EE256AC5
:1034F8008361F8EEE77A36EE667A67EE857A80EDD4
:103508000B6AC0ED0A7AC7EE257AC0ED0C6AC0EDE9
:103518000D7A704742699B1A4360D6E770B4D0E9C8
:1035280002460134846009B90136C66006EB860597
:10353800A41B02F00F0646EA01118618AD000A32F4
:103548003176023504EB840405EB440440F822305C
:103558004FF4FF75B5FBF4F4046070BC704700BF0E
:10356800D0F8683230B40C09092C01F00F0103F1CE
:103578000102C0F8682200EB03058CBF57343034D1
:103588000244092903F102038CBF5731303185F811
:103598006840C0F8683282F8681030BC704700BFD5
:1035A80038B50C46090EFFF7DBFFC4F30741FFF7F8
:1035B800D7FFC4F30721FFF7D3FFE1B2BDE83840D6
:1035C800FFF7CEBF2DE9F84F504D2B69002B53D094
:1035D8006C69002C52D1D5F86822D5F80890A91842
:1035E80054200132C5F8682281F86800B9F1000F4B
:1035F80020D00127A84603E00134A14518D02B6943
:1036080007FA04F63340E340F6D005EB040A4046D7
:103618009AF81810FFF7A4FF9AF818301B09082B1E
:1036280046D8DFE803F031555C4A6B6455554A00CB
:10363800D5F86822D5E90043A818591C5126B1FBD2
:10364800F4F304FB1313541C6B6080F86860C5F82E
:1036580068428BB92C4402325A23C5F8682284F890
:1036680068304FF6FF732A492A4892B2FFF7CAFC1E
:103678000023C5F868326B61BDE8F88F6B68002BD2
:10368800FAD1D5F86822ECE705EB840BDBF8283093
:103698001968FFF785FF9AF8181001F00F0141F03B
:1036A8009001FFF75DFFDBF828305968FFF778FFD6
:1036B8002B6923EA06062E619EE705EB84039B6AC5
:1036C8001978FFF76DFF2B6923EA06062E6193E749
:1036D80005EB84039B6A1968FFF762FFE8E705EBCF
:1036E80084039B6A93F90010FFF75AFFE0E705EBA4
:1036F80084039B6A1988FFF753FFD9E705EB840316
:103708009B6AB3F90010FFF74BFFD1E7680E002062
:10371800D00E00203013002030B597B000240123CC
:1037280002254FF4A021CDE90B4310934FF48032CA
:103738004FF4E0130CA80D91CDE913521593CDE980
:103748000E44CDE9114401940694CDE90244CDE933
:103758000444CDE90744CDE90944FDF785FF29462E
:103768000F224FF4806301A80192049302950394F9
:103778000594FEF77BFA4FF484524FF4807306A841
:103788000B9406920A93FEF751FB17B030BD00BFA9
:1037980038B50D4C0D4D20462B4600220121FFF770
:1037A800BDFE012211462B1D2046FFF7B7FE084B30
:1037B800022220460121FFF7B1FE00230122C4E9BD
:1037C8000023636138BD00BF680E00200800002098
:1037D800700700202DE9F04F954C964FD4F88820BB
:1037E80022652DED028B4FF48062102581B0D4F84C
:1037F8008430A4F86820A4F8545004F1480098478D
:10380800D4F88830A4F8985041F28832A4F8AC2053
:10381800C4F8943004F18C00D4F8C830864DDFED3C
:10382800878A9FED878ADFF844B2DFF844A2DFF881
:103838004492DFF844829847D4F88820C4F8D4200A
:103848004FF08042D4F8EC30C4F8E42004F1CC0006
:103858009847D4F88820D4F81031C4F8F820C4F870
:10386800085104F1F0009847D4F88820C4F81C21C6
:10387800744AD4F83431C4F82C2104F58A70984776
:10388800D4F88820C4F840216F4AC4F85021D4F8ED
:10389800583104F59C709847D4F88830C4F87451AE
:1038A800C4F8643104F5AE70D4F87C319847D4F884
:1038B8008820C4F888214FF08242C4F89821D4F8AF
:1038C800A03104F5C0709847D4F88830C4F8BC51CA
:1038D800C4F8AC3104F5D270D4F8C4319847D4F8A0
:1038E8008830C4F8E051C4F8D03104F5E470D4F855
:1038F800E8319847554BE36155485649564A574B66
:10390800A56100264FF07E552062616262615449CC
:10391800544AE3635448D4F88830C4F80022C4F801
:103928001012C4F80C022361C4F8FC31C4F88432C4
:1039380004F50D70D4F88C32C4F80462C4F8086237
:10394800C4F82862C4F85C62C4F86072C4F86452AF
:10395800C4F85852C4ED948A84ED958A9847D4F8EF
:103968008830C4F8E03204F52470D4F8E832C4F89A
:10397800B862C4F8BC62C4F8C052C4F8B452C4F8FF
:10398800ACB2C4F8B0A29847D4F88830C4F83C3335
:1039980004F53B70D4F84433C4F81463C4F81873BE
:1039A800C4F81C53C4F81053C4F80893C4F80C8323
:1039B8009847D4F88830C4F8983304F55270D4F88E
:1039C800A033C4F87063C4F87473C4F87853C4EDB2
:1039D800D98A84EDDA8AC4F86C539847D4F88830C9
:1039E800C4F8F43304F56970D4F8FC33C4F8CC6334
:1039F800C4F8D063C4F8D453C4F8C0B3C4F8C4A39B
:103A0800C4F8C853984704F58060D4F88820D4F8DF
:103A180058348662C7620563C0F81C90C0F82080DD
:103A28004562026501B0BDEC028BBDE8F04F184756
:103A3800080000202472023D00002041BFFE5539D5
:103A48007680A53C0000A04000002040AE47613EC3
:103A580000004844000048C4333353400000A041EC
:103A68000000FAC30AD7A33C0000FA437118EC36E9
:103A780012D8753B7118EC3712D8F53B104BDFEDB7
:103A8800117A93ED497A104A104BB4EEE77AF1EEC9
:103A980010FA0AD80E4810600321596300224FF427
:103AA80000614FF09040FDF7CDBD0A48106003213A
:103AB800596301224FF400614FF09040FDF7C2BDF9
:103AC800080000200000484270070020002C014038
:103AD80000004040000040C010B5174C00224FF4D1
:103AE80080614FF09040FDF7ADFD211D4FF47A73D2
:103AF80001221248FEF7BAFC114BD3ED037AF8EE17
:103B0800677A01224FF480614FF09040C4ED027A49
:103B1800FDF798FD0B4BD4ED027A93ED006ADFEDCB
:103B28000A6A9FED0A7A77EEC67A67EEA67A67EE9A
:103B3800877AC4ED037A10BD700700208012002038
:103B480000300140640400200000B44300008039C4
:103B5800D0B5374C2DED028B94ED048A18EE100A7F
:103B6800FCF792FC2EA3D3E9002306460F46FCF788
:103B780069FF70B12F4BDFED307A2361F5EEC07A23
:103B8800F1EE10FAC4ED007A43DA3BD4BDEC028BB7
:103B9800D0BD3046394624A3D3E90023FCF748FFBB
:103BA80020B1264BDFED267A2361E7E7B2EE087AEB
:103BB800C8EE077ADFED236A9FED237A67EEA67ACF
:103BC800F4EEC77AF1EE10FA0FDB84ED007A3C23AD
:103BD8001E490022BDEC028B4B634FF090404FF41E
:103BE8000061BDE8D040FDF72DBD9FED197AF4EED8
:103BF800C77AF1EE10FAC1D884ED007A3C23134954
:103C08000122E7E7F1EE677AFCEEE77A17EE903AE1
:103C1800F5E7FCEEE77A17EE903AD9E7AFF30080C4
:103C28003D0AD7A3703D14403D0AD7A3703D14C088
:103C38007007002085EBA140E1FA264285EBA1C080
:103C4800E1FA26C20000C64200007042002C014082
:103C5800000070C20000000038B5354D354C6A6967
:103C6800D4F88832C4F8342204F50D70984794EDDE
:103C7800CC7AD4EDB57A77EE677A17EE900AFCF72E
:103C880003FC25A3D3E90023FCF756FCFCF72CFF23
:103C9800D4ED9E7AA86107EE100A77EEC77AD4F8B9
:103CA800E432C5ED077AC4EDA47A04F52470984788
:103CB800D4F86C21D4F84033C4F8EC2204F53B70F6
:103CC8009847EA69D4F86C31C4F8EC21C4F8F031AB
:103CD80004F5F670D4F830329847D4F8EC01FCF7C4
:103CE800D3FB0FA3D3E90023FCF726FC0EA3D3E9EB
:103CF8000023FCF74BFDFCF7F7FED4ED887A286229
:103D080007EE100A77EE877AC5ED047ABDE83840E9
:103D1800FFF71EBFAFF300809A9999999999D93FF7
:103D28003D0AD7A3703D144052B81E85EB098C405C
:103D3800700700200800002038B54FF080433E4D42
:103D48005B6A3E4CD5F8802007EE903A2846F8EE9C
:103D5800E77A2DED028BC4ED097A40F8483F904789
:103D6800DFED378AD5ED1C7A27EEA87AC4ED0A7AFA
:103D780017EE100AFCF788FB2BA3D3E90023FCF706
:103D880005FDFCF7B1FE2F4BEA6F5B6AE0625B4210
:103D980007EE903A2846F8EEE77A696F40F88C3FCC
:103DA8006263D5F8C4302163C4ED0E7A984795ED67
:103DB8002D8A68EE287A84ED0F8A17EE900AFCF7B0
:103DC80063FB19A3D3E90023FCF7E0FCFCF78CFEA6
:103DD80078EE087AD5F8B820D5F8C0302064626447
:103DE80017EE900AA364FCF74FFB11A3D3E9002355
:103DF800FCF7A2FBFCF778FE05F58C6507EE100AC8
:103E080095ED006AD4ED147ADFED0F6AE064D6EE22
:103E1800477ABDEC028B87EEA67AC4ED157A84ED5D
:103E2800167A38BDAFF30080182D4454FB21194091
:103E3800FCA9F1D24D62503F080000207007002015
:103E48000000B443000400400044134638B51D4D3B
:103E58001D4CEA68D4F83031C4F8202104F58A7082
:103E680098471A4AD4F80C311268C4F8FC2004F1B7
:103E7800F0009847164BD4F800211968154BC4F880
:103E8800D8101A6004F1CC00D4F8E8309847124BE7
:103E9800296BD4F8DC201A60C4F8B011D4F8C0310A
:103EA80004F5D27098476B6CD4F8B421C4F8D431B7
:103EB800EA65D4F8E43104F5E4709847D4F8D831C9
:103EC8002B6638BD70070020080000202C12002047
:103ED800EC13002028120020D81000200000000059
:103EE8002DE9F04F2DED028BDFF83CA14B4CDAF8B1
:103EF800880089B0FCF7C8FAD4E91A6732463B460D
:103F080080468946FCF718FB02460B46D4E91C019B
:103F1800FCF75CF90AF58E650AF58F63D3E900238F
:103F2800C4E91C01D5E90001FCF730FC01F10043AC
:103F3800324619463B46FCF7FFFA42464B46FCF729
:103F4800FBFA32463B46FCF741F90223C4E91A0161
:103F58001A4604F178010AF5906001F0CDFF0223BA
:103F68001A4604F198010AF5946001F0C5FF02238E
:103F78001D461A4604F1B8010AF5986001F0BCFF25
:103F88002B4604F1D8020AF59C610AF59060CDE948
:103F9800005501F05FFF2B46CDE9005504F1F8020A
:103FA80004F1780104F1D80001F054FF2B46CDE963
:103FB800005504F58C720AF5A0610AF5946001F0C9
:103FC80049FF2B46CDE9005504F59C7204F1980190
:103FD80004F58C7001F03EFF114B124F00200021B8
:103FE80000220026C4E95623C4E95801C4E95A014D
:103FF800C4E95C6704F5BC76A6F1600804F1F8052D
:1040080004F5B077F5E80201FCF7E0F84545E6E885
:1040180002010BD0F7E80223F4E700BF7007002085
:104028000000F03F00004940080000209C4A9D4FD6
:10403800022602F14005A2F1E001A2F12000334678
:10404800CDE9006601F006FFA5F120023346A2F192
:104058004001CDE90066944801F0FCFECDE9006618
:1040680033462A46A5F59071A5F1200001F0F2FE2D
:1040780005F12006B046F5E80201F7E80223FCF74F
:10408800A5F84545E6E80201F5D194ED7E7B8DED76
:10409800027B94ED847B53EC172B8DED047B94ED20
:1040A800807BDDE902018DED067BD4E982ABFCF76C
:1040B80043FADDE9062306460F4650465946FCF703
:1040C8003BFA02460B4630463946FCF77DF84FF07E
:1040D80000084FF0000906460F4642464B46C4E921
:1040E8008667FCF791FC002800F0AE80C4E9888957
:1040F800C4E98E89C4E98C89C4E98A896B4A6C4D04
:104108000226A2F1A8003346A2F12001CDE90066FB
:1041180001F0A0FED4E91C89A06AFCF7B5F9424673
:104128004B46FCF751F894ED1A7BCDE90401206B5E
:104138008DED027BFCF7A8F9DDE90223FCF744F8D2
:10414800D4E9902382468B46DDE90401FCF7F4F9B3
:1041580042464B46FCF73AF8D4E994238046894610
:1041680050465946FCF7E8F902460B464046494690
:10417800FCF72CF8D4E99223C4E99801DDE904019D
:10418800FCF7DAF9DDE90223FCF720F8D4E99623F5
:104198008046894650465946FCF7CEF902460B46FA
:1041A80040464946FCF712F8424A0196C4E99A018A
:1041B80000963346A2F13000A5F18001164601F0C1
:1041C80049FE05F1200806F12007F5E80201F6E8A6
:1041D8000223FBF7F9FF4545E7E80201F5D1364927
:1041E800364A0223CDE9003301F58C7001F032FE26
:1041F800D4E99801D4E99A67C4E91C01C4E91A67AB
:10420800FCF772FC3946C4F8B0023046FCF76CFC87
:10421800D4EDAF7AC4F8B40208EE100A78EE677AE3
:1042280017EE900AFCF730F91BA3D3E90023FCF73B
:10423800ADFAFCF759FC84EDAF8AC4F8B80209B0AE
:10424800BDEC028BBDE8F08F32463B46DDE9040148
:10425800FCF79CFA32463B46C4E98801DDE90201D5
:10426800FCF794FA0BF10049C4E98E0132463B464B
:1042780049465046FCF78AFADDE90623904603F1E1
:104288000049C4E98C0132463B4640464946FCF7A2
:104298007DFAC4E98A0131E7FCA9F1D24D62703F89
:1042A8000809002028050020C8040020B0090020C3
:1042B80048050020E0090020E8080020E804002064
:1042C8002DE9F04F664C674D022389B005F5AC60C7
:1042D8001A4604F5307101F00FFE05F5B06004F5DB
:1042E80038710123022201F007FE02231E4605F55C
:1042F800B2601A4604F53C7101F0FEFD05F5B661A1
:1043080005F5AC60334604F54472CDE9006601F06A
:10431800A1FD01273346CDE9006604F54C7204F58A
:10432800307104F5447001F095FD334605F5BA6126
:1043380005F5B06004F55472CDE9007701F08AFD07
:10434800CDE900763346484F04F5587204F53871C4
:1043580004F5547001F07EFD002600220023C4E914
:10436800D867C4E9DE67D5F88800C4E9DA23C4E968
:10437800DC23FCF789F894EDE07B53EC172B8DEDEB
:10438800027BCDE90401FCF7D7F8D4E9E223FBF777
:104398001DFF05F5BB63D3E900AB8046894605F5EB
:1043A800BC61C4E9E28952465B46D1E90001FCF7E9
:1043B800EDF901F100431946DDE90223FCF7BCF8E9
:1043C80005F58C63CDE906011868FCF75DF85246DF
:1043D8005B46FCF7DBF942464B46FCF7ADF8024674
:1043E8000B46DDE90601FBF7EFFECDE90601606D3E
:1043F80080F00040FCF748F85246804689465B4604
:1044080030463946FCF7C2F902460B464046494653
:10441800FCF792F802460B46DDE90601FBF7D6FEEB
:10442800DDE90423FCF788F8DDE90223FBF7CEFE7B
:10443800C4E9E00104F5647532463B46A5F140083D
:1044480004F54C7604F55A77F6E80201FBF7BEFE50
:104458004645E5E8020109D0F7E80223F4E700BF82
:1044680070070020080000200000F03F934ADFF8A2
:104478006882022502F14006A2F1C001A2F12000E3
:104488002B46CDE9005501F0E5FCA6F120022B46AC
:10449800A2F14001CDE90055894801F0DBFCCDE9E6
:1044A80000552B463246A6F58071A6F1200001F092
:1044B800D1FC06F120073D46B946F6E80201F8E8C6
:1044C8000223FBF783FE4E45E7E80201F5D195ED9F
:1044D800007B8DED027B95ED067B53EC172B8DED64
:1044E800047B95ED027BDDE90201D5E904AB8DED96
:1044F800067BFCF721F8DDE9062306460F46504601
:104508005946FCF719F802460B4630463946FBF780
:104518005BFE6C4D4FF000084FF0000906460F4651
:1045280042464B46C5E90067FCF76EFA002800F0E2
:104538009D80C5E90289C5E90889C5E90689C5E9F3
:104548000489614D614E02272A463B46A5F12001A8
:10455800A5F1A800CDE9007701F07CFCD4E9E28957
:10456800E06BFBF791FF42464B46FBF72DFE94EDBF
:10457800E07BCDE90401606C8DED027BFBF784FFE5
:10458800DDE90223FBF720FED5E9002382468B46AE
:10459800DDE90401FBF7D0FF42464B46FBF716FE68
:1045A800D5E904238046894650465946CDE906ABED
:1045B800FBF7C2FF02460B4640464946FBF706FE9C
:1045C80005F1200AD5E90223CAE90001DDE9040161
:1045D800FBF7B2FFDDE90223FBF7F8FDD5E9062377
:1045E80080468946DDE90601FBF7A6FF02460B4631
:1045F80040464946FBF7EAFD01973B46CAE90201F6
:1046080005F130020097284606F1500101F022FC1E
:1046180005F1300706F120085035F6E80201F7E801
:104628000223FBF7D1FD4645E5E80201F5D128490B
:10463800284A0223CDE9003301F58C7001F59C75F9
:1046480001F008FCDAE90001DAE90267C4E9E201ED
:10465800C4E9E067FCF748FA394645F8040B3046E8
:10466800FCF742FA286009B0BDE8F08F32463B46B5
:10467800DDE90401FCF78AF83246C5E902013B4648
:10468800DDE90201FCF782F80BF10049C5E90801F0
:1046980032463B4649465046FCF778F8DDE90623A2
:1046A800904603F10049C5E9060132463B464046BB
:1046B8004946FCF76BF8C5E9040142E7200B0020E6
:1046C80098050020A00B0020C80B002048050020FA
:1046D800000B0020B8050020F005002000000000B5
:1046E8002DE9F04FDFF854B28B4A8C498C4BDBF83C
:1046F8004800DFF84CA29BED087B8DB08DED047B64
:104708009BED0A7B8DED067B9BED007B8DED027B9F
:1047180092ED007B8DED087B9DED047B0BF1080489
:1047280084ED027B9DED067B84ED047B9DED027B91
:10473800D1E9006784ED007B9DED087BCBE90C6730
:104748008BED0E7BD3E90089FBF79EFE41EC100B45
:1047580001F0A6FC404649466DA3D3E900238DED40
:104768000A0BFBF7E9FEDDE90A23FBF7E5FE324613
:104778003B46CBE91001DDE90201FBF7DDFEDDE98F
:10478800082306460F46DDE90401FBF7D5FE02467D
:104798000B4630463946FBF719FD5DA3D3E90023E4
:1047A80006460F46DDE90601FBF7C6FE42464B46C4
:1047B800FBF7C2FEDDE90A23FBF7BEFE02460B4605
:1047C80030463946FBF702FD06460F46DAF89001F7
:1047D800CBE91467FBF758FE32463B46FBF7F4FC7F
:1047E8000BF1300503231F460126C4E914011A46BC
:1047F80028460BF1600101F07FFB0BF19008294678
:104808000AF5C1603B460BF17802CDE9007601F06C
:1048180021FBCDE9007633464246A8F118010BF199
:10482800600001F017FBD8E900670BF1980AD14640
:104838000BF17805F5E8020132463B46FBF7A6FF87
:104848004545E9E80201F5D1364B374DD3E9006714
:10485800DAE9002330463946FBF76EFED4E9002337
:10486800FBF7B4FCDAE90223C4E900013046394613
:10487800FBF762FED4E90223FBF7A8FCDAE904237C
:10488800C4E9020130463946FBF756FED4E9042351
:10489800FBF79CFC254A03260127C4E9040133469B
:1048A800A2F15001A2F118000196009701F0D2FA86
:1048B8001F4A3346CDE90066A2F14800294601F0B7
:1048C800C9FA1C4BD3E90067A3F1480805F1480968
:1048D800F8E80223D5E90001FBF776FC32463B46AF
:1048E800FBF754FFE5E802014D45F1D1D4E9002377
:1048F800D4E90201CBE90023D4E904230E4CC4E92E
:104908000001C4E902230DB0BDE8F08FAFF30080C9
:104918009A99999999992340781200202813002090
:1049280078110020980C002010060020F00C0020C0
:10493800380D0020800D0020600C0020400C002065
:1049480008000020000000002DE9F04F0F4D05F58C
:10495800C363D3ED007A2DED048BB7EE008AF4EE35
:10496800487AF1EE10FA8DB012D0F5EE407AF1EEF9
:1049780010FA04D00DB0BDEC048BBDE8F08F0DB07B
:10498800BDEC048BBDE8F04FFEF724BF7007002094
:10499800FFF7A2F8FFF7D0F94FF0A0428021DA4BD9
:1049A80011631B88D94CDA49DA4EDB4A07EE903A94
:1049B80004F2644393ED007AD84BF8EE677A40200E
:1049C80077EEC77A05F21C67F1EE677AC6ED007AD2
:1049D8000863128807EE902A04F58D6292ED007A3A
:1049E800F8EE677A77EEC77AF1EE677AC3ED007A68
:1049F800FFF72CFAFFF774FAFFF762FCD7ED007A9D
:104A0800F5EE407AF1EE10FA00F0848495ED0A6A2A
:104A1800DFEDC37AD5ED136A86EE277A05F5C56210
:104A280005F22C6304F5CA610692009104F25466FB
:104A3800D2ED007A77EEA67A77EE877AC3ED007A20
:104A4800D6ED005A009BB74FD3ED006ADFF8FCA201
:104A5800DFF8FCB225EEA57A36EEA66AA6EEA67AAF
:104A680066EE256AA7EEE77AC7EE267A17EE900A71
:104A7800FBF70AFD41EC100B01F0D2FB38688DED15
:104A8800020BFBF701FD9DED020B02460B4651ECB4
:104A9800100BFBF799FBFCF727F89FEDA37ACAF8F0
:104AA800000007EE900A67EE877A17EE900AFBF788
:104AB800EBFC93A3D3E90023FBF768FEFCF714F89B
:104AC800DAED037AD4ED226A95F9402607EE100A4A
:104AD80077EE677A534687EEA67AD86043F8040FD4
:104AE80008935346642ADCBF013285F840268F4874
:104AF80017EE101A43F8081F07936B6DD8BFC4F858
:104B08007031C4F86831D4F87831984797ED007A55
:104B1800DAED007A009BD6ED008A93ED008A77EEF5
:104B2800277A17EE900AFBF7AFFC41EC100B41EC2B
:104B3800190B01F015FBD5ED157A68EE277A53ECC1
:104B4800102B67EEA87ACDE9022317EE900AFBF73F
:104B58009BFCDDE90223FBF7EFFCB0EE490AF0EE1F
:104B6800690ACDE9020101F09BFA68EEA87A53ECD4
:104B7800102BE8EE087ACDE9042317EE900A38EEF8
:104B8800088AFBF781FC68EE287A804617EE900ABF
:104B98008946FBF779FCDDE90423FBF7CDFC0246E7
:104BA8000B4640464946FBF70FFB41EC100B01F062
:104BB80013FCDDE9020153EC102BFBF7E7FDFBF7D3
:104BC80093FF97ED007ADAED007ACBF8000077EEE4
:104BD800277A17EE900AFBF757FC41EC100B41ECD3
:104BE800190B01F0BDFA53EC102BCDE90223009B01
:104BF800D4ED5B7A93ED008AD6ED008A68EE277AC9
:104C080067EEA87A17EE900AFBF73EFCDDE902236F
:104C1800FBF792FCB0EE490AF0EE690ACDE9020111
:104C280001F03EFA68EEA87A53EC102BE8EE087A09
:104C3800CDE9042317EE900A38EE088AFBF724FC26
:104C480068EE287A804617EE900A8946FBF71CFC26
:104C5800DDE90423FBF770FC02460B464046494653
:104C6800FBF7B2FA41EC100B01F0B6FBDDE90201EB
:104C780053EC102BFBF78AFDFBF736FF95F940360E
:104C88004BF8040F642BD8BFC4F89401C4F88C0106
:104C9800D4F89C3126489847264A274BD2ED007A0B
:104CA80093ED007AF4EEC77AF1EE10FA52DC93ED48
:104CB800017AF4EEC77AF1EE10FA02D51F4B002202
:104CC8001A601F4A1F4BD2ED007A93ED007AF4EE7A
:104CD800C77AF1EE10FA40F302831B4B4FF07E5275
:104CE8001A60D4F86C36042B00F28183DFE813F0E5
:104CF8008502140260015400370000BFAFF3008042
:104D0800182D4454FB21094084110020080000207C
:104D1800000100502C12002030110020EC1300205C
:104D2800004413466006002000003443640100205C
:104D380088010020D810002064060020BC0D002047
:104D4800281200206C060020C00D0020A00D0020B5
:104D5800B40D0020DA4B4FF07E521A60B1E7D94B00
:104D6800D9491A46F7EE007A42F80C1992ED007A02
:104D7800B4EE677AF1EE10FA00F05483A3F1040858
:104D8800079A92ED007AB5EE407AF1EE10FA40F00B
:104D98005F83DFEDCE7A3DE09FEDCD7ADBED006AF3
:104DA800CC4A089BD2ED007AD4ED225A93ED006AE2
:104DB800C949C44B81ED007A86EE875A0799A3F159
:104DC8000408F3EE046AE5EE657AB4EEE66AF1EEFD
:104DD80010FAC2ED007A91ED007AC3ED007A44BF73
:104DE8000422C4F86C26B5EE407AF1EE10FA02D02F
:104DF800BA4A82ED007A9FEDBA7AF4EEC77AF1EEFC
:104E080010FA40F37882B34ADFEDB67A83ED007A80
:104E180082ED007ADFF8EC9297ED007A009BD6EDF0
:104E2800008A93ED008ADFF8E0A2CB46EBEC017A2A
:104E380077EE877AB7EE009A17EE900AFBF724FB15
:104E480041EC100B01F02CF968EEA87A53EC102B0A
:104E5800E8EE087ACDE9002317EE900A38EE088AC2
:104E6800FBF712FB68EE287A064617EE900A0F4603
:104E7800FBF70AFBDDE90023FBF75EFB02460B4666
:104E880030463946FBF7A0F941EC100B01F0A4FAC3
:104E980051EC100BFBF728FE069BD5ED136A93ED3A
:104EA800007A9FED916A914BCBF8000037EE267A95
:104EB80007EE900A77EEC77AF0EE086AC3ED007A3B
:104EC80067EE867AD8F80000894E67EEA67AC9EDB3
:104ED800027AFBF7D9FA76A3D3E90023FBF72CFB78
:104EE80041EC100B01F03CF9002251EC100B814B06
:104EF800FBF722FBFBF7F8FDD4F85431C9F80C0096
:104F0800C4F84401AAF5AC609847AA6ACAF80C200C
:104F1800D4F8B43650469847774BDFED787A93ED5E
:104F2800007A67EE277A17EE900AFBF7ADFA62A3CC
:104F3800D3E90023FBF72AFCFBF7D6FDD4F8482178
:104F4800AB6A226030606360AAF5D360636C9847EF
:104F5800636B6B61FEF780FED4ED228AD8ED007A90
:104F680078EEA77A87EEA88A38EE098A18EE100A32
:104F7800FBF78AFA41EC100B01F00AF851EC100B20
:104F8800FBF7B2FD07EE900A37EEC88AB6EE007A54
:104F9800B4EEC78AF1EE10FAC8BF77EEC97A68EEA8
:104FA800A78AC8ED008A0DB0BDEC048BBDE8F08F70
:104FB800534A9BED007ADFF854A104921346B3ECF0
:104FC800019ADAED007A93ED008ADFF84481DFF880
:104FD80044B1C7EE088A77EEC97AB1EE488A77EE0F
:104FE800A87A17EE900AFBF74FFA049ADBED006AED
:104FF80092ED026AD8ED007A88EE067ACDE90201D0
:1050080077EEE67A67EE277A17EE900AFBF73CFA16
:1050180041EC100B01F060F979EE687A53EC102B33
:1050280017EE900ACDE90A23FBF72EFADDE90A23E9
:10503800CDE90401DDE90201FBF77EFA02460B46E1
:10504800DDE90401FBF7C2F8FBF74EFD98ED027AA3
:10505800079AB5EEC07A4346F1EE10FA07EE900AC9
:1050680043F8040F92ED007A7FF7BDAEF2EE0E6AB8
:10507800B4EEE67AF1EE10FA7FF5B5AE089A92ED45
:10508800006AF3EE0E6AB4EEE66AF1EE10FA7FF704
:10509800AAAE104AD8F8001010600322CAF800001F
:1050A800CBF80010C4F86C269DE600BFAFF3008073
:1050B800F4433A762F1BE43F182D4454FB21094052
:1050C800BC0D0020C80D002000002041C2B8323EAF
:1050D8004260E53BA01300209C060020CC0D002078
:1050E8000000A042C2B8B23F0000FA43F01300200B
:1050F8008011002000006940E813002000003443BC
:1051080090060020D00D0020A006002024120020C8
:10511800C40D002070120020D54A94ED647ADFF89F
:1051280070A304921346B3EC019ADAED007A93ED7A
:10513800008ADFF86083DFF854B3C7EE088A77EE99
:10514800C97AB1EE488A77EEA87A17EE900AFBF78B
:105158009BF9049ADBED006A92ED026AD8ED007AB9
:1051680088EE067ACDE9020177EEE67A67EE277ACD
:1051780017EE900AFBF788F941EC100B01F0ACF838
:1051880079EE687A53EC102B17EE900ACDE90823D4
:10519800FBF77AF9DDE90823CDE90401DDE902012D
:1051A800FBF7CAF90B460246DDE90401FBF70EF8E6
:1051B800FBF79AFC18ED027A4346B5EE407AF1EE19
:1051C80010FA07EE900A43F8040F40F0848018EDB7
:1051D800017AB5EE407AF1EE10FA7CD1A54AD8F8FA
:1051E800001010600222C4F86C26079ACAF8000062
:1051F800CBF8001092ED007AF5E59F4A94ED647AB9
:10520800DFF88CA204921346B3EC019ADAED007A27
:1052180093ED008ADFF87C82DFF870B2C7EE088A67
:1052280077EEC97AB1EE488A77EEA87A17EE900A37
:10523800FBF72AF9049ADBED006A92ED026AD8EDD1
:10524800007A88EE067ACDE9020177EEE67A67EE13
:10525800277A17EE900AFBF717F941EC100B01F0CB
:105268003BF879EE687A53EC102B17EE900ACDE9EB
:105278000823FBF709F9DDE90823CDE90401DDE995
:105288000201FBF759F90B460246DDE90401FAF77A
:105298009DFFFBF729FC18ED027A4346B5EE407AEC
:1052A800F1EE10FA07EE900A43F8040F13D158ED07
:1052B800016AB7EE007AF4EE476AF1EE10FA0AD105
:1052C8006C4AD8F8001010600122CAF80000CBF828
:1052D8000010C4F86C26079A92ED007A83E593EDE6
:1052E800017AF4EEC77AF1EE10FA7FF5FAAC634B67
:1052F80000221A60F5E4B2EE007AF4EEC77AF1EE15
:1053080010FA7DD55B4ADFED5E7A83ED007A82ED97
:10531800007A7FE5D4F82401FBF7B6F84EA3D3E969
:105328000023FBF709F90022564BFBF72FFAFBF78E
:10533800DBFB05F5C46304F254661860FBF7A4F8B8
:1053480002460B4646A1D1E90001FAF73DFF0246A5
:105358000B4645A1D1E90001FAF736FFFBF7C4FB7C
:1053680005F2246396ED009A186004F5CA63009369
:10537800FBF78AF841EC100B00F092FE53EC102B6F
:10538800CDE90223009B69EE097AD3ED008AE8EEA5
:10539800A87A78EEA88A17EE900AFBF775F868EEF7
:1053A800897A05F5C563804617EE900A8946069303
:1053B800FBF76AF8DDE90223FBF7BEF80B46024665
:1053C80049464046FAF700FF41EC100B01F004F89B
:1053D80051EC100BFBF788FB05F22C6387ED008A74
:1053E8001860069B07EE900A1860FFF729BB264B4A
:1053F800079AD3ED007A92ED007AA3F10408F2E45B
:1054080017EE900AFBF740F813A3D3E90023FBF744
:1054180093F800221B4BFBF7B9F9FBF765FB07EE86
:10542800900AF7E4984695ED147A1848D5ED157A60
:10543800104A58F804CDC0F800C077EE877A1448AF
:1054480011600022C5ED147A0160C4F86C2697E457
:10545800F2EE047ACCE400BF182D4454FB21094035
:10546800764F1E166A4D0540F1D4C853FB210940FA
:1054780084060020A013002078060020C00D00201C
:1054880035FA0E3E00806640C80D002070120020DC
:1054980024120020C40D00202DE9804800249BB070
:1054A800FBF794FBFEF738F9CDE90F44CDE9114439
:1054B800DFF87C831394D8F81430CD48CD4DCE4E08
:1054C800CE4FDFF8709343F48003C8F81430D8F84F
:1054D800143003F480030293029BD8F8143043F489
:1054E8000033C8F81430D8F8143003F400330393A9
:1054F800039BD8F8143043F48023C8F81430D8F844
:10550800143003F4802304932246C321049BFCF740
:1055180099F822464FF440614FF09040FCF792F81A
:105528004FF0020A0FA9B6481194CDE90FA5FBF771
:10553800B7FF08230FA94FF09040CDE910540F93FF
:105548000125FBF7ADFFC3230FA9A948CDE90F3506
:10555800CDE91144FBF7A4FF4FF440630FA94FF0C6
:1055680090400F93CDE910541294FBF799FF22460F
:1055780021460720FBF7B6FE0720FBF7E9FE224687
:1055880021460920FBF7AEFE0920FBF7E1FED8F81B
:1055980014302B43C8F81430D8F814302B40224666
:1055A800214601930B20019BFBF79CFE0B20FBF788
:1055B800CFFE224621460C20FBF794FE0C20FBF779
:1055C800C7FE4FF0A04830464FF0040BC6E901442F
:1055D8003461F5617462C6E90B54F4603562746332
:1055E800B461B463C6F80080C6F814B00894CDE975
:1055F8000F44CDE91144CDE91344CDE90944FBF743
:1056080055FB08A930460894FBF7E6FD0FA930467C
:10561800CDE90FA5CDE91144CDE91344FBF752FCC0
:10562800784B3B603846C7F814B0C7E901443C6181
:10563800FD617C62C7E90B54FC603D627C63BC6120
:10564800BC630F94CDE91044CDE912441494FBF7E0
:105658002DFB38460FA9CDE90F55CDE91144CDE909
:105668001344FBF72FFC21462C220FA80594CDE903
:105678000844CDE90A44CDE90C440E94CDE906442A
:1056880002F080FD6049C9F81040122263236026A9
:105698004846C9E90012C9E90263C9E90544FDF7AA
:1056A80091F805A94846CDE905440794FDF7F6FAAF
:1056B8004FF48073224608A94846CDE90864CDE92D
:1056C8000D34CDE90A440C94FDF736FA4FF0007317
:1056D8004FF400520FA948464C4F17931492CDE946
:1056E8000F44CDE911441394CDE91544CDE918448C
:1056F800FDF7FAFA484600F0F7FA2022214610A8EA
:1057080002F040FD4FF6FF794FF080430FA938466D
:105718004FF0030A3E4E3B60C7F80C90C7E90144BE
:105728003C61BC61CDE908440A9411951595CDF802
:105738003CA0FDF763F8384608A908940A94FDF7D9
:10574800ADFA2022214610A802F01CFD314B33602F
:105758000FA93046C6F80C90C6E901443461B4611B
:105768000894CDE90944CDF83CA011951595FDF7AD
:1057780045F808A9304608940A94FDF78FFA264B95
:10578800264E9C604FF4E1310C221846C3E90061B3
:105798005A61C3E90344C3E90644C3E90844FDF771
:1057A800C7FC1F4BDFF890901C61302107224FF493
:1057B800827E4FF4806C18464FF430674FF40076C1
:1057C800C3E90661DA625D61C3E908449C62C3E922
:1057D8000C44C3E9009EC3E902C7FCF7DFFDFDF7EF
:1057E800F9FFFDF7D5FF0F4B0F4A1049996025E0E7
:1057F800000400480000111088110020DC1000206F
:105808000014004800010050002C0140E412002060
:1058180034110020000400403013002000440040F0
:10582800801200200800024084110020400000502F
:10583800001002403012002000300140DA605D6044
:105848001A682A431A60D8F83030C8F83040D8F8B7
:1058580008302B43C8F8083043461A68002AFCD0A1
:10586800D8684249424D434C434A40F00100D86051
:10587800D86840F00200D860986840F0040098604A
:1058880001238D60CC604B600B6843F001030B6013
:105898000023116B1363936843F00103936013466D
:1058A8001A68002AFCD0DA68344C354F9FED358AE7
:1058B800DFF8E880344D354E42F00102DA60DA68EC
:1058C80042F00202DA609A6842F004029A604FF4E9
:1058D800806101224FF09040FBF7B4FE0720FBF7F0
:1058E80099F93C212A48FCF7E5FE3C212948FCF7B8
:1058F800E1FE08212848FCF771FEFBF785F9012233
:10590800206002213046FBF79DFE3B6943F0070308
:105918003B61FDF757FE98ED007AF7EE007AB4EE9A
:10592800677AF1EE10FA1AD1FFF70EF8FEF7D8FEF3
:10593800002202213046FBF785FEFBF765F9236854
:1059480095ED227AC01A07EE900A27EE087AF8EE4B
:10595800677AF4EEC77AF1EE10FAEED4CDE7FEF7E7
:10596800BBF8FEF773FAFEF789F8DDE71C00024082
:10597800400100503011002000010050DC110020CF
:10598800680E002000007A44080000200004004847
:10599800E412002034110020301200208C0D002069
:1059A800022802D008281BD07047174A1748134608
:1059B8005833D3ED007AB7EE007AF4EEC77AF1EEF9
:1059C80010FA4FF0000148BF77EE877A116058BF90
:1059D80019604FF0000148BFC3ED007AFCF72ABEFA
:1059E80030B40B4B094803F21C610025002203F573
:1059F800C3640D6083F840264FF07E55256011463C
:105A080030BCFCF715BE00BF880D00203012002006
:105A180070070020704700BF0A4B9A6942F00102E4
:105A28009A619A6982B002F001020092009ADA69DA
:105A380042F08052DA61DB6903F080530193019BE5
:105A480002B070470010024070B502688AB00023A7
:105A5800B2F1A04F0546CDE90533CDE907330993E7
:105A68003AD0364B9A4201D00AB070BD344A136816
:105A78000133012B136056D0324B334C5A6942F430
:105A880000325A615B6903F4003304931022032344
:105A980005A94FF09040CDE90523049EFBF700FDD2
:105AA8002A4B236080224FF480634FF480702021BA
:105AB800E26063614FF4005200232061C4E90612DA
:105AC8002046C4E90133FBF769FC08B1FFF7A2FFE0
